:020000040800F2
:1000000000000220691F00082919000831190008A2
:1000100039190008411900084919000800000000BA
:10002000000000000000000000000000511900085E
:100030005F190008000000006D1900087B19000816
:10004000B91F0008B91F0008B91F0008B91F000830
:10005000B91F0008B91F0008B91F0008B91F000820
:10006000B91F0008B91F0008B91F0008B91F000810
:10007000B91F0008B91F0008B91F0008B91F000800
:10008000B91F0008B91F0008B91F0008B91F0008F0
:10009000B91F0008B91F0008B91F0008B91F0008E0
:1000A000B91F0008B91F0008B91F0008B91F0008D0
:1000B00089190008B91F0008B91F0008B91F0008F6
:1000C000B91F0008B91F0008B91F0008B91F0008B0
:1000D000B91F00089D190008B1190008B91F0008D0
:1000E000B91F0008B91F0008B91F0008B91F000890
:1000F000B91F0008B91F0008B91F0008B91F000880
:10010000B91F0008B91F0008B91F0008B91F00086F
:10011000B91F0008B91F0008B91F0008B91F00085F
:10012000C5190008B91F0008B91F0008B91F000849
:10013000B91F0008B91F0008B91F0008B91F00083F
:10014000B91F0008B91F0008B91F0008B91F00082F
:10015000B91F0008B91F0008B91F0008B91F00081F
:10016000B91F0008B91F0008B91F0008B91F00080F
:10017000B91F0008B91F0008B91F000800000000DF
:08018000B91F0008B91F0008B7
:1001880010B5054C237833B9044B13B10448AFF3C9
:1001980000800123237010BD14000020000000001F
:1001A800446C000808B5034B1BB103490348AFF37F
:1001B800008008BD0000000018000020446C000802
:1001C80053B94AB9002908BF00281CBF4FF0FF31B6
:1001D8004FF0FF3000F06AB9ADF1080C6DE904CEBC
:1001E80000F006F8DDF804E0DDE9022304B070470A
:1001F8002DE9F047089D0C46002B4ED194468C45BE
:100208008646B2FA82F262D94AB1C2F1200391401D
:1002180020FA03F30CFA02FC194300FA02FE4FEA33
:100228001C471FFA8CF6B1FBF7F44FEA1E4307FB95
:10023800141143EA014304FB06F199420AD91CEB65
:10024800030304F1FF3080F01281994240F20F81DC
:10025800023C6344591A1FFA8EF3B1FBF7F007FB0F
:10026800101143EA014300FB06F69E420AD91CEB33
:10027800030300F1FF3180F0FC809E4240F2F980D8
:10028800634402389B1B40EA044000211DB1D3405F
:100298000022C5E90032BDE8F0878B4205D90DB1CF
:1002A800C5E9000100210846F5E7B3FA83F1002902
:1002B80046D1A34202D39042C0F0F080861A64EB84
:1002C80003030120002DE6D0C5E90063E3E7002A17
:1002D80040F09080A1EB0C044FEA1C481FFA8CF701
:1002E8000121B4FBF8F64FEA1E4308FB164443EA23
:1002F800044307FB06F0984208D91CEB030306F1F8
:10030800FF3402D2984200F2CD8026461C1A1FFA0A
:100318008EF3B4FBF8F008FB104443EA044300FBF7
:1003280007F79F4208D91CEB030300F1FF3402D200
:100338009F4200F2B0802046DB1B40EA0640A5E75A
:10034800C1F120068B4022FA06F71F4320FA06FC6B
:1003580004FA01F343EA0C03F44000FA01F8380CFC
:100368004FEA1349B4FBF0FE1FFA87FC00FB1E445A
:1003780049EA04440EFB0CF9A14502FA01F20AD934
:100388003C190EF1FF3A80F08480A14540F281804B
:10039800AEF1020E3C44A4EB09041FFA83F9B4FB46
:1003A800F0F300FB134449EA044403FB0CFCA445A6
:1003B80007D93C1903F1FF3067D2A44565D9023B40
:1003C8003C4443EA0E40A0FB0293A4EB0C049C427D
:1003D800CE469C4651D34ED055B1B8EB0E0364EBD4
:1003E8000C0404FA06F6CB401E43CC40C5E9006471
:1003F800002150E7C2F1200320FA03F10CFA02FCB5
:1004080024FA03F394400C434FEA1C4800FA02FE16
:100418001FFA8CF7B3FBF8F008FB1031230C43EA02
:10042800014300FB07F1994208D91CEB030300F1D3
:10043800FF362CD299422AD9023863445B1AA4B2F7
:10044800B3FBF8F108FB113344EA034401FB07F35B
:10045800A34208D91CEB040401F1FF3613D2A342CE
:1004680011D902396444E41A41EA004139E70446E3
:10047800F0E6084606E7C845AED2B9EB020E63EBD4
:10048800070C0138A8E73146EDE7034699E73046FF
:10049800D4E7D6467FE7634402384DE7064623464D
:1004A80008460FE7023E634430E700BF704700BFCD
:1004B80080B584B000AF3B4600221A605A609A604B
:1004C800DA603D4B3D4A1A603B4B00225A603A4B7A
:1004D80000229A60384B01221A61374B00221A76A3
:1004E800354B002283F82020334B0022DA62324B4E
:1004F800334A9A62304B0022DA602F4B0522DA61C8
:100508002D4B002283F830202B4B01225A612A48B8
:1005180001F0E6FD0346002B01D001F001F90823A4
:100528003B6001237B600023BB603B4619462248A1
:1005380001F01AFE0346002B01D001F0F1F809235F
:100548003B6002237B603B4619461B4801F00CFECA
:100558000346002B01D001F0E3F80A233B60032394
:100568007B603B461946144801F0FEFD0346002B0C
:1005780001D001F0D5F80B233B6004237B603B4698
:1005880019460D4801F0F0FD0346002B01D001F09B
:10059800C7F80C233B6005237B603B461946064899
:1005A80001F0E2FD0346002B01D001F0B9F800BFCD
:1005B8001037BD4680BD00BF30000020002001403C
:1005C8000100000F80B58AB000AF786007F114030E
:1005D80000221A605A609A60DA601A617B681B68A8
:1005E8003C4A934271D100233B613B4B5B6C3A4AD6
:1005F80043F480735364384B5B6C03F480733B6142
:100608003B690023FB60344B1B6B334A43F0040304
:100618001363314B1B6B03F00403FB60FB6800237F
:10062800BB602D4B1B6B2C4A43F0020313632A4B10
:100638001B6B03F00203BB60BB6807237B610323CA
:10064800BB610023FB6107F114031946234802F03C
:1006580037FC03237B610323BB610023FB6107F1A4
:10066800140319461E4802F02BFC1E4B1E4A1A6042
:100678001C4B00225A601B4B00229A60194B002227
:10068800DA60184B4FF480621A61164B4FF400621F
:100698005A61144B4FF400529A61124B4FF4807216
:1006A800DA61104B00221A620E4B00225A620D4882
:1006B80002F08AF80346002B01D001F031F87B687C
:1006C800084A9A63074A7B68936300BF2837BD4688
:1006D80080BD00BF002001400038024000080240F1
:1006E80000040240780000201064024080B500AF8A
:1006F80001220821024802F07FFD00BF80BD00BF33
:10070800000C024080B584B000AF002208212F48B9
:1007180002F072FD012208212C4802F06DFD0A2327
:1007280002222B492B4803F03CFD0023FB604FF4C9
:1007380000437B8100237B603FE07B68002B06DB66
:100748007B68032B03DC7B680433FB6018E07B6861
:10075800032B07DD7B68072B04DC7B68C3F10703E9
:10076800FB600DE07B68072B06DD7B680B2B03DC49
:100778007B680433FB6003E07B68C3F11703FB600D
:10078800134B1A887B8913409BB2002B05D0124A61
:10079800FB68002122F8131009E00F4AFB6832F8C1
:1007A8001330013399B20C4AFB6822F813107B8985
:1007B8005B087B817B6801337B607B680F2BBCDD2A
:1007C80000BF00BF1037BD4680BD00BF000C02400F
:1007D800F8000020B8010020D800002080B582B0C1
:1007E80000AF00237B600C4B1B6B0B4A43F4800368
:1007F8001363094B1B6B03F480037B607B68002247
:100808000021382001F0A9FF382001F0C2FF00BF05
:100818000837BD4680BD00BF0038024080B58EB0A5
:1008280000AF07F11C0300221A605A609A60DA6070
:100838001A615A619A613B4600221A605A609A60AE
:10084800DA601A615A619A612F4B4FF020421A60A0
:100858002D4B2E4A5A602C4B00229A602A4B0022BC
:10086800DA60294B00221A61274B10225A61264B65
:1008780000229A61244B0022DA61234B00221A627B
:10088800214B00225A62204B4FF480529A621E4B31
:100898000022DA621C4B4FF480421A631A4B002282
:1008A8005A63194B00229A63174B00225A640F238C
:1008B800FB610F233B623C237B620023BB62102356
:1008C800FB6211233B6300237B6308233B600F23F8
:1008D8007B600923BB600023FB6010233B6111236D
:1008E8007B610023BB613A4607F11C0319460648A1
:1008F80004F03AF80346002B01D000F011FF00BFC6
:100908003837BD4680BD00BFFC000020040100A0B0
:1009180080B586B000AF3B1D00221A605A609A600D
:10092800DA601A611C4B1B68002B31D11A4B01226B
:100938001A6000233B60194B9B6B184A43F0010374
:100948009363164B9B6B03F001033B603B684FF6C8
:1009580088737B600223BB600023FB6003233B6139
:100968000C237B613B1D19460D4802F0A9FA4CF295
:10097800B3737B600223BB600023FB6003233B61EE
:100988000C237B613B1D1946064802F099FA00E0EA
:1009980000BF1837BD4680BD4C010020003802401A
:1009A80000100240000C024080B582B000AF7860B1
:1009B800FFF7AEFF00BF0837BD4680BD80B58EB0DB
:1009C80000AF07F1240300221A605A609A60DA60C7
:1009D8001A6100233B628F4B1B6B8E4A43F0100356
:1009E80013638C4B1B6B03F010033B623B6A0023C1
:1009F800FB61884B1B6B874A43F004031363854BE9
:100A08001B6B03F00403FB61FB690023BB61814B93
:100A18001B6B804A43F0200313637E4B1B6B03F070
:100A28002003BB61BB6900237B617A4B1B6B794A4E
:100A380043F080031363774B1B6B03F080037B61E8
:100A48007B6900233B61734B1B6B724A43F00103C4
:100A58001363704B1B6B03F001033B613B6900237D
:100A6800FB606C4B1B6B6B4A43F002031363694BCF
:100A78001B6B03F00203FB60FB680023BB60654B44
:100A88001B6B644A43F008031363624B1B6B03F050
:100A98000803BB60BB6800237B605E4B1B6B5D4A31
:100AA80043F0400313635B4B1B6B03F040037B6015
:100AB8007B6800227021584802F09EFB00224FF408
:100AC8000851564802F098FB00224FF480615448C0
:100AD80002F092FB00224FF4E071524802F08CFBC6
:100AE80000224FF48071504802F086FB0022082152
:100AF8004E4802F081FB70237B620123BB62002316
:100B0800FB6200233B6307F124031946424802F0C5
:100B1800D7F94FF408537B620123BB620023FB62C1
:100B280000233B6307F1240319463C4802F0C8F947
:100B38004FF400737B620023BB620023FB6207F162
:100B480024031946364802F0BBF94FF480637B62F0
:100B58000123BB620023FB6200233B6307F12403EC
:100B680019462F4802F0ACF9C0237B620023BB6210
:100B78000023FB6207F1240319462B4802F0A0F971
:100B880030237B620023BB620023FB6207F124034E
:100B98001946224802F094F94FF4E0737B6201236E
:100BA800BB620023FB6200233B6307F12403194661
:100BB8001C4802F085F94FF488537B620023BB621E
:100BC8000123FB6207F124031946144802F078F95F
:100BD8004FF480737B620123BB620023FB62002316
:100BE8003B6307F1240319460F4802F069F908230B
:100BF8007B620123BB620023FB6200233B6307F196
:100C080024031946094802F05BF900BF3837BD468E
:100C180080BD00BF003802400010024000080240BA
:100C2800001402400018024000000240000C02407C
:100C380080B500AF124B134A1A60114B124A5A6022
:100C48000F4B00229A600E4B0022DA600C4B4FF4D7
:100C580080421A610A4B00225A61094B00229A61AC
:100C6800074B0022DA61064B00221A62044802F0A0
:100C7800F7FA0346002B01D000F052FD00BF80BDFB
:100C88005001002000540040A086010080B58AB0C1
:100C980000AF786007F1140300221A605A609A6066
:100CA800DA601A617B681B68194A93422BD10023CA
:100CB8003B61184B1B6B174A43F002031363154B38
:100CC8001B6B03F002033B613B69C0237B6112236A
:100CD800BB610023FB6103233B6204237B6207F1B2
:100CE800140319460C4802F0EBF80023FB60094B8B
:100CF8001B6C084A43F400131364064B1B6C03F483
:100D08000013FB60FB6800BF2837BD4680BD00BFED
:100D180000540040003802400004024080B483B010
:100D280000AF0346FB80044AFB88138000BF0C37E2
:100D3800BD465DF8047B7047FEFF0F6080B483B04A
:100D480000AF0346FB80044AFB88538000BF0C3782
:100D5800BD465DF8047B7047FEFF0F6080B483B02A
:100D680000AF064B5B889BB2FB80FB889BB21846A2
:100D78000C37BD465DF8047B704700BFFEFF0F606F
:100D880090B583B000AF0446084611461A4623467C
:100D9800FB800346BB800B467B8013463B802A20A2
:100DA800FFF7BCFFFB881B0A9BB21846FFF7C6FF7C
:100DB800FB88DBB29BB21846FFF7C0FF7B881B0A93
:100DC8009BB21846FFF7BAFF7B88DBB29BB2184686
:100DD800FFF7B4FF2B20FFF7A1FFBB881B0A9BB2CC
:100DE8001846FFF7ABFFBB88DBB29BB21846FFF78C
:100DF800A5FF3B881B0A9BB21846FFF79FFF3B885D
:100E0800DBB29BB21846FFF799FF2C20FFF786FF4D
:100E180000BF0C37BD4690BD80B584B000AF034617
:100E2800FB80154B1B88013B9AB2134B5B88013B37
:100E38009BB200210020FFF7A3FF0023FB8111E0F4
:100E48000023BB8106E0FB881846FFF777FFBB89C4
:100E58000133BB81084B5B88BA899A42F3D3FB897B
:100E68000133FB81044B1B88FA899A42E8D300BFFF
:100E780000BF1037BD4680BDA401002080B582B0F8
:100E880000AF0346FB800B46BB8013467B80BB88C4
:100E9800FA88B988F888FFF773FF7B881846FFF748
:100EA8004DFF00BF0837BD4680BD000090B587B034
:100EB80000AF0446084611461A462346FB800346FF
:100EC800BB800B46FB7013463B8000237B75FB8879
:100ED8003B8297F82C305B08FB73FB7BDB08DBB2AB
:100EE8001A46FB7B03F00703DBB2002B14BF012378
:100EF8000023DBB213449AB297F82C309BB212FB52
:100F080003F3BB81FB78203BFB70FB7B9AB2FB8829
:100F180013449BB2013B9CB297F82C309AB2BB8821
:100F280013449BB2013B9BB2B988F8882246FFF76D
:100F380027FF00237B827AE097F82C300C2B28D0EF
:100F480097F82C30102B08D1FA787B8A3C4912018B
:100F58000A4413441B78FB751BE097F82C30182BB8
:100F68000BD1FA78798A374813465B0013441B0182
:100F780003440B441B78FB750BE097F82C30202BAF
:100F88005AD1FA787B8A304992010A4413441B7873
:100F9800FB750023BB7544E097F83030002B20D157
:100FA800FA7DBB7D42FA03F303F00103002B04D062
:100FB8003B881846FFF7C2FE03E03B8D1846FFF753
:100FC800BDFE7B7D01337B757B7DFA7BB3FBF2F144
:100FD80001FB02F29B1ADBB2002B1FD100237B75A9
:100FE80022E0FA7DBB7D42FA03F303F00103002BF4
:100FF80005D03A88B988FB881846FFF73FFFFB8879
:101008000133FB80FA883B8AD21AFB7B9A4205D1CE
:101018003B8AFB80BB880133BB8005E0BB7D013385
:10102800BB75BB7D072BB7D97B8A01337B827A8A54
:10103800BB899A4280D300E000BF1C37BD4690BDF3
:101048006C6C00085C7200082C84000880B483B0C3
:1010580000AF0346FB71FB791B09DBB203F0030306
:10106800DBB2002B07D00A4B4FF4A0721A80084B52
:10107800F0225A8006E0064BF0221A80044B4FF407
:10108800A0725A8000BF0C37BD465DF8047B7047DC
:10109800A401002080B500AF00224FF40051AA48F7
:1010A80002F0AAF84FF4FA7000F0F6FF01224FF4AC
:1010B8000051A54802F0A0F84FF4FA7000F0ECFFD8
:1010C8000020FFF7C3FFD320FFF728FEFFF746FEF7
:1010D80003461A469D4B9A80FFF740FE03461A4680
:1010E8009A4B9A80FFF73AFE03461A46974B9A8026
:1010F800964B9B881B029AB2944B9A80FFF72EFE60
:1011080003461A46914B9B8813439AB28F4B9A8099
:10111800CF20FFF703FE0020FFF710FEC120FFF7E6
:101128000DFE3020FFF70AFEED20FFF7F7FD6420E3
:10113800FFF704FE0320FFF701FE1220FFF7FEFD74
:101148008120FFF7FBFDE820FFF7E8FD8520FFF78A
:10115800F5FD1020FFF7F2FD7A20FFF7EFFDCB2019
:10116800FFF7DCFD3920FFF7E9FD2C20FFF7E6FD4E
:101178000020FFF7E3FD3420FFF7E0FD0220FFF732
:10118800DDFDF720FFF7CAFD2020FFF7D7FDEA2095
:10119800FFF7C4FD0020FFF7D1FD0020FFF7CEFDCB
:1011A800C020FFF7BBFD1B20FFF7C8FDC120FFF7DC
:1011B800B5FD0120FFF7C2FDC520FFF7AFFD3020C8
:1011C800FFF7BCFD3020FFF7B9FDC720FFF7A6FDEC
:1011D800B720FFF7B3FD3620FFF7A0FD0820FFF783
:1011E800ADFD3A20FFF79AFD5520FFF7A7FDB12086
:1011F800FFF794FD0020FFF7A1FD1A20FFF79EFDE1
:10120800B620FFF78BFD0A20FFF798FDA220FFF715
:1012180095FDF220FFF782FD0020FFF78FFD2620C5
:10122800FFF77CFD0120FFF789FDE020FFF776FD41
:101238000F20FFF783FD2A20FFF780FD2820FFF706
:101248007DFD0820FFF77AFD0E20FFF777FD0820C7
:10125800FFF774FD5420FFF771FDA920FFF76EFD1D
:101268004320FFF76BFD0A20FFF768FD0F20FFF70B
:1012780065FD0020FFF762FD0020FFF75FFD0020FD
:10128800FFF75CFD0020FFF759FDE120FFF746FD61
:101298000020FFF753FD1520FFF750FD1720FFF73B
:1012A8004DFD0720FFF74AFD1120FFF747FD0620F7
:1012B800FFF744FD2B20FFF741FD5620FFF73EFDC9
:1012C8003C20FFF73BFD0520FFF738FD1020FFF716
:1012D80035FD0F20FFF732FD3F20FFF72FFD3F20A0
:1012E800FFF72CFD0F20FFF729FD2B20FFF716FD38
:1012F8000020FFF723FD0020FFF720FD0120FFF766
:101308001DFD3F20FFF71AFD2A20FFF707FD0020EB
:10131800FFF714FD0020FFF711FD0020FFF70EFD79
:10132800EF20FFF70BFD1120FFF7F8FC782000F005
:10133800B3FE2920FFF7F2FC01224FF48071044824
:1013480001F05AFF00BF80BD00080240A401002040
:101358000000024090B58BB004AFBA601A4603464D
:10136800FB810B46BB811346FB80FB89BB820023B4
:10137800FB7548E0FB7D002B45D1FA89264B1B887D
:10138800194697F82C305B08DBB2CB1A9A423FDC3F
:10139800BA89214B5B88194697F82C30CB1A9A42A8
:1013A80036DCBB681B78802B02D90123FB752AE049
:1013B800BB681B780D2B0BD197F82C309AB2BB89E0
:1013C8001344BB81BB8AFB81BB680133BB6017E058
:1013D800BB681A78FC88B989F88997F83030029385
:1013E80097F82C3001933B8D00932346FFF75EFD61
:1013F80097F82C305B08DBB21A46FB891344FB8153
:10140800BB680133BB60BB681B78002BB2D100E01E
:1014180000BF1C37BD4690BDA401002080B500AFB9
:101428003F4B1B88DBB29AB23D4B1A803D4B1B6881
:101438003D4AD35C1B021AB2394B1B881BB21343BB
:101448001BB29AB2364B1A80364B1B68032B47D80F
:1014580001A252F823F000BF711400088F1400088D
:10146800AD140008CB1400082D4B1B8843F0B003C3
:101478009AB22B4B1A802A4B1B8823F040039AB24E
:10148800274B1A802DE0264B1B8843F0D0039AB2D5
:10149800234B1A80224B1B8823F020039AB2204B3F
:1014A8001A801EE01E4B1B8843F0E0039AB21C4BC7
:1014B8001A801B4B1B8823F010039AB2184B1A8012
:1014C8000FE0174B1B8843F070039AB2144B1A8035
:1014D800134B1B8823F080039AB2114B1A8000E04B
:1014E80000BF104B1B6801335A4203F0030302F09C
:1014F800030258BF53420B4A1360002240210B4895
:1015080001F07AFE012302220549094802F00DFD87
:1015180001224021054801F06FFE00BF80BD00BFD9
:1015280004000020AC010020000000200018024048
:10153800B801002080B584B004AF00F03BFD00F096
:1015480051F8FFF73BFA00F0A5FA00F043F9FFF76E
:1015580065F9FFF76DFB00F0E9FAFFF73FF9FEF7D1
:10156800A7FF00F047FA00F045FC00F019FC00F076
:10157800A3F84FF6FF70FFF74FFC002302931823E0
:1015880001934FF6FF7300934FF4FC63124A322124
:101598000A20FFF7DFFE114B1B88012BFBD10F4BF5
:1015A80000221A80FFF7AEF800F096F81F20FFF728
:1015B80033FC00230293182301934FF6FF73009323
:1015C8004FF47843064A32211E20FFF7C3FE142049
:1015D80000F0BAF8DFE700BF5C6C0008B201002039
:1015E800646C000880B594B000AF07F12003302286
:1015F8000021184605F0F6FA07F10C0300221A60DC
:101608005A609A60DA601A610023BB60284B1B6C31
:10161800274A43F080531364254B1B6C03F0805317
:10162800BB60BB6800237B60224B1B68214A43F4E4
:10163800804313601F4B1B6803F480437B607B6807
:1016480002233B620123FB6210233B630223BB633B
:101658000023FB6308233B64A8237B640223BB6449
:101668000423FB6407F12003184601F03DFF0346FD
:10167800002B01D000F054F80F23FB6002233B61DC
:1016880000237B614FF4A053BB614FF4A053FB616F
:1016980007F10C030521184602F09EF90346002BBA
:1016A80001D000F03DF800BF5037BD4680BD00BFF7
:1016B800003802400070004080B500AF00F036F8F6
:1016C800FFF714F8FFF7E6FC00F00AFB322000F001
:1016D8003BF800BF80BD000080B500AF0D4B1B7804
:1016E8005A1C0D4B83FB0213D910D317C91A0B468A
:1016F8009B000B449B00D11ACAB2064B1A70054BCB
:101708001B78002B03D11021044801F08EFD00BF87
:1017180080BD00BFB1010020676666660010024008
:1017280080B400AF72B600BF00BFFDE780B500AF60
:10173800034803F015FA034803F0AAF900BF80BD77
:10174800580200201002002080B483B000AF034686
:10175800FB80084AFB881380064B1A88064B1A80C0
:10176800064B00221A8000BF0C37BD465DF8047B8B
:10177800704700BFB6010020B4010020B20100206C
:1017880080B582B000AF78607B681B68B3F1804F8A
:1017980016D10D4B1B88002B10D00B4B1B88013B1F
:1017A8009AB2094B1A80084B1B88002B06D1074BAD
:1017B80001221A80064B1A88034B1A80FFF72EFE67
:1017C80000BF0837BD4680BDB4010020B20100202B
:1017D800B601002080B500AF174B184A1A60164BA7
:1017E8004FF482725A60144B00229A60124B002206
:1017F800DA60114B00221A610F4B00225A610E4B1E
:101808004FF400729A610C4B0022DA610A4B0022F5
:101818001A62094B00225A62074B00229A62064B51
:101828000A22DA62044802F0F7FA0346002B01D0D4
:10183800FFF776FF00BF80BDB801002000300140EF
:1018480080B58AB000AF786007F1140300221A60EF
:101858005A609A60DA601A617B681B68194A934279
:101868002BD100233B61184B5B6C174A43F4805320
:101878005364154B5B6C03F480533B613B69002355
:10188800FB60114B1B6B104A43F0020313630E4BB2
:101898001B6B03F00203FB60FB6838237B610223A8
:1018A800BB610023FB6103233B6205237B6207F1D5
:1018B80014031946054801F003FB00BF2837BD464D
:1018C80080BD00BF003001400038024000040240E3
:1018D80080B483B000AF00237B60104B5B6C0F4A71
:1018E80043F4804353640D4B5B6C03F480437B608B
:1018F8007B6800233B60094B1B6C084A43F080530C
:101908001364064B1B6C03F080533B603B6800BFBD
:101918000C37BD465DF8047B704700BF00380240B5
:1019280080B400AF00BFFDE780B400AF00BFFDE7A3
:1019380080B400AF00BFFDE780B400AF00BFFDE793
:1019480080B400AF00BFFDE780B400AF00BFBD4664
:101958005DF8047B704780B400AF00BFBD465DF8FA
:10196800047B704780B400AF00BFBD465DF8047BC0
:10197800704780B500AF00F06FFB00BF80BD00006E
:1019880080B500AF024803F0B4F900BF80BD00BFC6
:101998005802002080B500AF024804F0EFF800BFFD
:1019A80080BD00BFEC02002080B500AF024804F003
:1019B800E5F800BF80BD00BF3003002080B500AF50
:1019C800024801F041F800BF80BD00BF7800002048
:1019D80080B400AF064BD3F88830054A43F470034F
:1019E800C2F8883000BFBD465DF8047B704700BF71
:1019F80000ED00E080B586B000AF07F108030022D3
:101A08001A605A609A60DA603B4600221A605A608F
:101A18001E4B1F4A1A601D4B53225A601B4B002253
:101A28009A601A4B4FF6FF72DA60184B00221A615F
:101A3800164B00225A61154B00229A61134802F096
:101A4800D7FF0346002B01D0FFF76AFE4FF48053FF
:101A5800BB6007F1080319460C4803F015FB034661
:101A6800002B01D0FFF75CFE00233B6000237B6066
:101A78003B461946054803F0E1FE0346002B01D01A
:101A8800FFF74EFE00BF1837BD4680BD100200208C
:101A98000000014080B586B000AF07F108030022BE
:101AA8001A605A609A60DA603B4600221A605A60EF
:101AB8001D4B4FF080421A601B4B40F247325A6070
:101AC800194B00229A60184B6322DA60164B0022E9
:101AD8001A61154B00229A61134802F089FF0346E8
:101AE800002B01D0FFF71CFE4FF48053BB6007F1B9
:101AF800080319460C4803F0C7FA0346002B01D027
:101B0800FFF70EFE00233B6000237B603B4619462F
:101B1800054803F093FE0346002B01D0FFF700FEB3
:101B280000BF1837BD4680BD5802002080B588B078
:101B380000AF3B1D00221A605A609A60DA601A6191
:101B48005A619A611E4B1F4A1A601D4B40F2473278
:101B58005A601B4B00229A60194B6322DA60184BBB
:101B680000221A61164B00229A61154802F040FFC4
:101B78000346002B01D0FFF7D3FD114803F060F8AE
:101B88000346002B01D0FFF7CBFD60237B600023C9
:101B9800BB600023FB6000237B613B1D00221946CC
:101BA800074803F0AFF90346002B01D0FFF7B8FD53
:101BB800034800F05BF800BF2037BD4680BD00BF7A
:101BC800A0020020001C004080B586B000AF7860FD
:101BD8007B681B68224A93420ED100237B61214B0C
:101BE8005B6C204A43F0010353641E4B5B6C03F0AB
:101BF80001037B617B692EE07B681B68B3F1804F32
:101C080016D100233B61174B1B6C164A43F00103A6
:101C18001364144B1B6C03F001033B613B69002206
:101C280000211C2000F099FD1C2000F0B2FD12E0FC
:101C38007B681B680C4A93420DD10023FB60094B5B
:101C48001B6C084A43F080031364064B1B6C03F0BB
:101C58008003FB60FB6800BF1837BD4680BD00BF2E
:101C68000000014000380240001C004080B588B0E8
:101C780000AF786007F10C0300221A605A609A607E
:101C8800DA601A617B681B68124A93421ED10023EE
:101C9800BB60114B1B6B104A43F0200313630E4BC0
:101CA8001B6B03F02003BB60BB684FF48073FB60C1
:101CB80002233B6100237B610023BB610923FB6195
:101CC80007F10C031946054801F0FAF800BF203760
:101CD800BD4680BD001C0040003802400014024090
:101CE80080B500AF01220649064803F016FF01221D
:101CF8004FF48061044801F07FFA00BF80BD00BF47
:101D0800E9020020300300200014024080B582B0B0
:101D180000AF78607B681B68194A93420AD10A238E
:101D280001221849184803F066FE01221549164891
:101D380003F0F3FE7B681B68144A93421BD1144BD3
:101D48001B784F2B03D1134B01221A700EE0104B56
:101D58001B78612B03D1104B00221A7006E00C4B44
:101D68001B78412B02D10C4B01221A700122084921
:101D78000A4803F0D2FE00BF0837BD4680BD00BF49
:101D880000100140E8020020EC020020004400405E
:101D9800E9020020EA020020B00100203003002000
:101DA80080B500AF114B124A1A60104B4FF4E13264
:101DB8005A600E4B00229A600C4B0022DA600B4BE3
:101DC80000221A61094B0C225A61084B00229A61C1
:101DD800064B0022DA61054803F0C0FD0346002BDC
:101DE80001D0FFF79DFC00BF80BD00BFEC020020C2
:101DF8000010014080B500AF114B124A1A60104B19
:101E08004FF4E1325A600E4B00229A600C4B0022CC
:101E1800DA600B4B00221A61094B0C225A61084BFD
:101E280000229A61064B0022DA61054803F096FD0C
:101E38000346002B01D0FFF773FC00BF80BD00BF35
:101E4800300300200044004080B58CB000AF7860BB
:101E580007F11C0300221A605A609A60DA601A615E
:101E68007B681B683A4A934235D10023BB61394BE2
:101E78005B6C384A43F010035364364B5B6C03F0D9
:101E88001003BB61BB6900237B61324B1B6B314A7A
:101E980043F0010313632F4B1B6B03F001037B61BA
:101EA8007B694FF4C063FB6102233B6200237B62C2
:101EB8000323BB620723FB6207F11C03194626486C
:101EC80000F0FEFF00220021252000F046FC25201E
:101ED80000F05FFC38E07B681B68204A934233D1EE
:101EE80000233B611B4B1B6C1A4A43F400331364F9
:101EF800184B1B6C03F400333B613B690023FB6008
:101F0800144B1B6B134A43F001031363114B1B6BF8
:101F180003F00103FB60FB680C23FB6102233B62B7
:101F280000237B620323BB620723FB6207F11C03C8
:101F38001946094800F0C4FF00220021262000F0BD
:101F48000CFC262000F025FC00BF3037BD4680BDC4
:101F580000100140003802400000024000440040E8
:101F6800DFF834D00D480E490E4A002302E0D45859
:101F7800C4500433C4188C42F9D30B4A0B4C0023C9
:101F880001E013600432A242FBD3FFF721FD04F005
:101F980031FEFFF7CFFA7047000002200000002052
:101FA800140000201C9C0008140000207803002066
:101FB800FEE7000080B500AF0E4B1B680D4A43F4E6
:101FC800007313600B4B1B680A4A43F48063136069
:101FD800084B1B68074A43F480731360032000F022
:101FE800B1FB0F2000F008F8FFF772FC0023184639
:101FF80080BD00BF003C024080B582B000AF786071
:10200800124B1A68124B1B7819464FF47A73B3FBBC
:10201800F1F3B2FBF3F3184600F0C9FB0346002BBB
:1020280001D001230EE07B680F2B0AD800227968C3
:102038004FF0FF3000F091FB064A7B6813600023E5
:1020480000E0012318460837BD4680BD080000207F
:10205800100000200C00002080B400AF064B1B7855
:102068001A46064B1B681344044A136000BFBD465A
:102078005DF8047B704700BF100000207403002047
:1020880080B400AF034B1B681846BD465DF8047B5F
:10209800704700BF7403002080B584B000AF78603B
:1020A800FFF7EEFFB8607B68FB60FB68B3F1FF3FAA
:1020B80005D00A4B1B781A46FB681344FB6000BF27
:1020C800FFF7DEFF0246BB68D31AFA689A42F7D8D0
:1020D80000BF00BF1037BD4680BD00BF1000002004
:1020E80080B584B000AF78600023FB737B68002B59
:1020F80001D1012333E07B681B6C002B09D1786880
:10210800FEF760FA7B6800225A647B68002283F835
:102118003C207B681B6C03F01003002B18D17B68F4
:102128001B6C23F4885323F0020343F002027B68FC
:102138001A64786800F03AF97B6800225A647B6870
:102148001B6C23F0030343F001027B681A6401E06F
:102158000123FB737B68002283F83C20FB7B184635
:102168001037BD4680BD000080B485B000AF7860F0
:1021780039600023BB607B6893F83C30012B01D1A8
:10218800022305E17B68012283F83C203B681B6839
:10219800092B25D97B681B68D9683B681B689BB2EB
:1021A8001A4613465B0013441E3B072202FA03F348
:1021B800DA437B681B680A40DA607B681B68D96869
:1021C8003B689A683B681B689BB2184603465B00ED
:1021D80003441E3B9A407B681B680A43DA6022E08E
:1021E8007B681B6819693B681B689BB21A461346D3
:1021F8005B001344072202FA03F3DA437B681B6887
:102208000A401A617B681B6819693B689A683B68D1
:102218001B689BB2184603465B0003449A407B68E0
:102228001B680A431A613B685B68062B24D87B68E5
:102238001B68596B3B685A6813469B001344053B5F
:102248001F2202FA03F3DA437B681B680A405A63C9
:102258007B681B68596B3B681B689BB218463B68D8
:102268005A6813469B001344053B00FA03F27B6847
:102278001B680A435A634CE03B685B680C2B24D804
:102288007B681B68196B3B685A6813469B001344AC
:10229800233B1F2202FA03F3DA437B681B680A40D8
:1022A8001A637B681B68196B3B681B689BB21846EE
:1022B8003B685A6813469B001344233B00FA03F219
:1022C8007B681B680A431A6323E07B681B68D96A2A
:1022D8003B685A6813469B001344413B1F2202FA8D
:1022E80003F3DA437B681B680A40DA627B681B6881
:1022F800D96A3B681B689BB218463B685A68134604
:102308009B001344413B00FA03F27B681B680A43B5
:10231800DA62224BFB607B681B68214A934209D131
:102328003B681B68122B05D1FB685B6843F480028D
:10233800FB685A607B681B68194A934223D13B6843
:102348001B68102B03D03B681B68112B1BD1FB6843
:102358005B6843F40002FB685A603B681B68102BFB
:1023680011D1104B1B68104AA2FB03239A0C134689
:102378009B0013445B00BB6002E0BB68013BBB6091
:10238800BB68002BF9D17B68002283F83C2000232E
:1023980018461437BD465DF8047B7047002301409A
:1023A800002001400800002083DE1B4380B485B074
:1023B80000AF7860794BFB60FB685B6823F44032C0
:1023C800FB685A60FB685A687B685B681A43FB685D
:1023D8005A607B681B685A687B681B6822F48072A5
:1023E8005A607B681B6859687B681B691A027B689E
:1023F8001B680A435A607B681B685A687B681B68BD
:1024080022F040725A607B681B6859687B689A683A
:102418007B681B680A435A607B681B689A687B68FC
:102428001B6822F400629A607B681B6899687B6865
:10243800DA687B681B680A439A607B689B6A584A1B
:10244800934222D07B681B689A687B681B6822F0DD
:1024580070629A607B681B6899687B689A6A7B6877
:102468001B680A439A607B681B689A687B681B68CC
:1024780022F040529A607B681B6899687B68DA6A28
:102488007B681B680A439A600FE07B681B689A6840
:102498007B681B6822F070629A607B681B689A6888
:1024A8007B681B6822F040529A607B681B689A68B8
:1024B8007B681B6822F002029A607B681B68996837
:1024C8007B681B7E5A007B681B680A439A607B689E
:1024D80093F82030002B1BD07B681B685A687B68F8
:1024E8001B6842F400625A607B681B685A687B6804
:1024F8001B6822F460425A607B681B6859687B68D5
:102508005B6A013B5A037B681B680A435A6007E011
:102518007B681B685A687B681B6822F400625A60F3
:102528007B681B68DA6A7B681B6822F47002DA62CF
:102538007B681B68D96A7B68DB69013B1A057B6885
:102548001B680A43DA627B681B689A687B681B68A9
:1025580022F400729A607B681B6899687B6893F81C
:1025680030305A027B681B680A439A607B681B6894
:102578009A687B681B6822F480629A607B681B6893
:1025880099687B685B699A027B681B680A439A6052
:1025980000BF1437BD465DF8047B70470023014037
:1025A8000100000F80B485B000AF78607B6803F04D
:1025B8000703FB600C4BDB68BB60BA684FF6FF0390
:1025C8001340BB60FB681A02BB68134343F0BF6348
:1025D80043F40033BB60044ABB68D36000BF1437C0
:1025E800BD465DF8047B704700ED00E080B400AFA5
:1025F800044BDB681B0A03F007031846BD465DF869
:10260800047B704700ED00E080B483B000AF034660
:10261800FB7197F90730002B0BDBFB7903F01F02E6
:10262800074997F907305B09012000FA02F241F8DF
:10263800232000BF0C37BD465DF8047B704700BF00
:1026480000E100E080B483B000AF03463960FB715D
:1026580097F90730002B0ADB3B68DAB20C4997F987
:1026680007301201D2B20B4483F800230AE03B681A
:10267800DAB20849FB7903F00F03043B1201D2B226
:102688000B441A7600BF0C37BD465DF8047B7047D3
:1026980000E100E000ED00E080B489B000AFF86030
:1026A800B9607A60FB6803F00703FB61FB69C3F15B
:1026B8000703042B28BF0423BB61FB690433062BE3
:1026C80002D9FB69033B00E000237B614FF0FF3236
:1026D800BB6902FA03F3DA43BB681A407B699A4084
:1026E8004FF0FF317B6901FA03F3D9437B680B4054
:1026F800134318462437BD465DF8047B7047000035
:1027080080B582B000AF78607B68013BB3F1807F11
:1027180001D301230FE00A4A7B68013B53600F2174
:102728004FF0FF30FFF78EFF054B00229A60044BF5
:1027380007221A60002318460837BD4680BD00BF2F
:1027480010E000E080B582B000AF78607868FFF7ED
:1027580029FF00BF0837BD4680BD80B586B000AFF1
:102768000346B9607A60FB7300237B61FFF73EFF85
:1027780078617A68B9687869FFF78EFF024697F939
:102788000F3011461846FFF75DFF00BF1837BD46EA
:1027980080BD80B582B000AF0346FB7197F9073062
:1027A8001846FFF731FF00BF0837BD4680BD80B52A
:1027B80082B000AF78607868FFF7A2FF034618463A
:1027C8000837BD4680BD000080B586B000AF786090
:1027D80000237B61FFF754FC38617B68002B01D133
:1027E800012399E07B68022283F835207B68002268
:1027F80083F834207B681B681A687B681B6822F0A2
:1028080001021A600FE0FFF73BFC02463B69D31A4E
:10281800052B08D97B6820225A657B68032283F838
:102828003520032378E07B681B681B6803F00103ED
:10283800002BE8D17B681B681B687B617A69384B81
:1028480013407B617B685A687B689B681A437B6886
:10285800DB681A437B681B691A437B685B691A4308
:102868007B689B691A437B68DB691A437B681B6A30
:1028780013437A6913437B617B685B6A042B07D136
:102888007B68DA6A7B681B6B13437A6913437B6145
:102898007B681B687A691A607B681B685B697B6167
:1028A8007B6923F007037B617B685B6A7A69134362
:1028B8007B617B685B6A042B17D17B689B6A7A69AA
:1028C80013437B617B68DB6A002B0ED0786800F0CD
:1028D8007BFA0346002B08D07B6840225A657B6848
:1028E800012283F83520012316E07B681B687A698A
:1028F8005A61786800F032FA0346FB607B68DB6D4A
:102908003F229A40FB689A607B6800225A657B6880
:10291800012283F83520002318461837BD4680BDAC
:102928003F8010F080B584B000AF78607B689B6D05
:10293800FB60FFF7A5FBB8607B6893F83530DBB226
:10294800022B08D07B6880225A657B68002283F8B6
:102958003420012352E07B681B681A687B681B6877
:1029680022F016021A607B681B685A697B681B682C
:1029780022F080025A617B681B6C002B03D17B68B4
:102988009B6C002B07D07B681B681A687B681B68E8
:1029980022F008021A607B681B681A687B681B684B
:1029A80022F001021A6013E0FFF76AFB0246BB68D7
:1029B800D31A052B0CD97B6820225A657B68032221
:1029C80083F835207B68002283F83420032315E040
:1029D8007B681B681B6803F00103002BE4D17B684C
:1029E800DB6D3F229A40FB689A607B68012283F87E
:1029F80035207B68002283F83420002318461037DE
:102A0800BD4680BD80B483B000AF78607B6893F822
:102A18003530DBB2022B04D07B6880225A65012353
:102A28000CE07B68052283F835207B681B681A68F0
:102A38007B681B6822F001021A60002318460C37D5
:102A4800BD465DF8047B704780B586B000AF7860FE
:102A58000023BB608E4B1B688E4AA2FB03239B0A94
:102A68007B617B689B6D3B613B691B68FB607B6896
:102A7800DB6D08229A40FB681340002B1AD07B6854
:102A88001B681B6803F00403002B13D07B681B68CA
:102A98001A687B681B6822F004021A607B68DB6D89
:102AA80008229A403B699A607B685B6D43F001029B
:102AB8007B685A657B68DB6D01229A40FB6813408E
:102AC800002B12D07B681B685B6903F08003002B26
:102AD8000BD07B68DB6D01229A403B699A607B686A
:102AE8005B6D43F002027B685A657B68DB6D0422EC
:102AF8009A40FB681340002B12D07B681B681B6848
:102B080003F00203002B0BD07B68DB6D04229A4094
:102B18003B699A607B685B6D43F004027B685A6589
:102B28007B68DB6D10229A40FB681340002B43D072
:102B38007B681B681B6803F00803002B3CD07B688C
:102B4800DB6D10229A403B699A607B681B681B68A2
:102B580003F48023002B18D07B681B681B6803F4E0
:102B68000023002B08D17B681B6C002B24D07B68CA
:102B78001B6C786898471FE07B689B6C002B1BD008
:102B88007B689B6C7868984716E07B681B681B68B5
:102B980003F48073002B07D17B681B681A687B6875
:102BA8001B6822F008021A607B681B6C002B03D09C
:102BB8007B681B6C786898477B68DB6D20229A409D
:102BC800FB681340002B00F08F807B681B681B6834
:102BD80003F01003002B00F087807B68DB6D202258
:102BE8009A403B699A607B6893F83530DBB2052BD5
:102BF80036D17B681B681A687B681B6822F016024E
:102C08001A607B681B685A697B681B6822F080021F
:102C18005A617B681B6C002B03D17B689B6C002B73
:102C280007D07B681B681A687B681B6822F008025B
:102C38001A607B68DB6D3F229A403B699A607B682B
:102C4800012283F835207B68002283F834207B68D2
:102C58001B6D002B7ED07B681B6D7868984779E0E8
:102C68007B681B681B6803F48023002B1DD07B68DE
:102C78001B681B6803F40023002B0DD17B685B6C79
:102C8800002B31D07B685B6C786898472CE000BFDC
:102C980008000020B5814E1B7B68DB6B002B23D01E
:102CA8007B68DB6B786898471EE07B681B681B684D
:102CB80003F48073002B0FD17B681B681A687B684C
:102CC8001B6822F010021A607B68012283F8352005
:102CD8007B68002283F834207B68DB6B002B03D0F1
:102CE8007B68DB6B786898477B685B6D002B32D01C
:102CF8007B685B6D03F00103002B22D07B68052203
:102D080083F835207B681B681A687B681B6822F08B
:102D180001021A60BB680133BB607A699A4207D323
:102D28007B681B681B6803F00103002BF2D100E0ED
:102D380000BF7B68012283F835207B68002283F876
:102D480034207B68DB6C002B05D07B68DB6C7868F3
:102D5800984700E000BF1837BD4680BD80B485B0F5
:102D680000AF78607B681B68DBB2103B144AA2FB9B
:102D780003231B09FB60134AFB6813441B781A469C
:102D88007B68DA65FB68032B09D97B681B6823F429
:102D98007F7323F003031A1D7B689A6507E07B683D
:102DA8001B6823F47F7323F003037A6893657B68B9
:102DB8009B6D18461437BD465DF8047B704700BF0D
:102DC800ABAAAAAA049C000880B485B000AF7860BA
:102DD8000023FB737B689B6ABB607B689B69002B45
:102DE8001FD1BB68032B56D801A252F823F000BFAD
:102DF800092E00081B2E0008092E00089F2E000827
:102E08007B68DB6A03F08073002B46D00123FB73D9
:102E180043E07B68DB6AB3F1C07F40D10123FB73D9
:102E28003DE07B689B69B3F5005F21D1BB68032B4C
:102E380037D801A252F823F0512E0008572E000867
:102E4800512E0008692E00080123FB7330E07B68CF
:102E5800DB6A03F08073002B25D00123FB7322E08B
:102E68007B68DB6AB3F1C07F1FD10123FB731CE0D1
:102E7800BB68022B03D9BB68032B03D018E00123DE
:102E8800FB7315E07B68DB6A03F08073002B0ED0C0
:102E98000123FB730BE000BF0AE000BF08E000BF9E
:102EA80006E000BF04E000BF02E000BF00E000BF92
:102EB800FB7B18461437BD465DF8047B704700BF9E
:102EC80080B489B000AF7860396000237B6100234B
:102ED8003B610023BB610023FB616BE10122FB69BD
:102EE80002FA03F37B613B681B687A6913403B6114
:102EF8003A697B699A4240F05A813B685B6803F003
:102F08000303012B05D03B685B6803F00303022B26
:102F180030D17B689B68BB61FB695B00032202FAC6
:102F280003F3DB43BA691340BB613B68DA68FB69AA
:102F38005B0002FA03F3BA691343BB617B68BA69A1
:102F48009A607B685B68BB610122FB6902FA03F344
:102F5800DB43BA691340BB613B685B681B0903F03C
:102F68000102FB6902FA03F3BA691343BB617B6888
:102F7800BA695A603B685B6803F00303032B17D0F8
:102F88007B68DB68BB61FB695B00032202FA03F321
:102F9800DB43BA691340BB613B689A68FB695B0015
:102FA80002FA03F3BA691343BB617B68BA69DA6052
:102FB8003B685B6803F00303022B23D1FB69DA0843
:102FC8007B68083253F82230BB61FB6903F00703C2
:102FD8009B000F2202FA03F3DB43BA691340BB617B
:102FE8003B681A69FB6903F007039B0002FA03F3C5
:102FF800BA691343BB61FB69DA087B680832B969AF
:1030080043F822107B681B68BB61FB695B000322E5
:1030180002FA03F3DB43BA691340BB613B685B68A0
:1030280003F00302FB695B0002FA03F3BA69134376
:10303800BB617B68BA691A603B685B6803F440331C
:10304800002B00F0B4800023FB60604B5B6C5F4A90
:1030580043F4804353645D4B5B6C03F48043FB6033
:10306800FB685B4AFB699B08023352F82330BB615B
:10307800FB6903F003039B000F2202FA03F3DB430F
:10308800BA691340BB617B68524A93422BD07B6874
:10309800514A934225D07B68504A93421FD07B689F
:1030A8004F4A934219D07B684E4A934213D07B68AB
:1030B8004D4A93420DD07B684C4A934207D07B68B7
:1030C8004B4A934201D107230EE008230CE0062364
:1030D8000AE0052308E0042306E0032304E00223B2
:1030E80002E0012300E00023FA6902F003029200E3
:1030F8009340BA691343BB613549FB699B080233A6
:10310800BA6941F823203B4B1B68BB613B69DB4331
:10311800BA691340BB613B685B6803F48033002BDA
:1031280003D0BA693B691343BB61324ABB69136078
:10313800304B5B68BB613B69DB43BA691340BB61D9
:103148003B685B6803F40033002B03D0BA693B6922
:103158001343BB61274ABB695360264B9B68BB611D
:103168003B69DB43BA691340BB613B685B6803F4A6
:103178008013002B03D0BA693B691343BB611D4A16
:10318800BB6993601B4BDB68BB613B69DB43BA6976
:103198001340BB613B685B6803F40013002B03D04A
:1031A800BA693B691343BB61124ABB69D360FB69C7
:1031B8000133FB61FB690F2B7FF690AE00BF00BFA8
:1031C8002437BD465DF8047B704700BF00380240D5
:1031D800003801400000024000040240000802409C
:1031E800000C024000100240001402400018024087
:1031F800001C0240003C014080B483B000AF7860FE
:103208000B467B8013467B707B78002B03D07A8833
:103218007B689A6103E07B881A047B689A6100BF27
:103228000C37BD465DF8047B704780B485B000AFAD
:1032380078600B467B807B685B69FB607A88FB68FB
:1032480013401A04FB68D9437B880B401A437B68F8
:103258009A6100BF1437BD465DF8047B70470000D3
:1032680080B584B000AF78607B68002B01D1012362
:103278002BE17B6893F83D30DBB2002B06D17B68ED
:10328800002283F83C207868FDF700FD7B68242243
:1032980083F83D207B681B681A687B681B6822F0EE
:1032A80001021A607B681B681A687B681B6842F415
:1032B80000421A607B681B681A687B681B6822F4E6
:1032C80000421A6000F080FDF8607B685B68814A04
:1032D800934207D8FB68804A934294BF0123002396
:1032E800DBB206E0FB687D4A934294BF01230023CA
:1032F800DBB2002B01D00123E7E0FB68784AA2FB90
:1033080003239B0CBB607B681B685B6823F03F0151
:103318007B681B68BA680A435A607B681B681B6A2B
:1033280023F03F017B685B686A4A934202D8BB6816
:10333800013309E0BB684FF4967202FB03F3694A54
:10334800A2FB03239B0901337A6812680B431362BB
:103358007B681B68DB6923F44F4222F0FF027B681D
:103368005B685C498B4219D8FB68591E7B685B68AF
:103378005B00B1FBF3F3591C40F6FC730B40002BC8
:103388000AD0FB68591E7B685B685B00B1FBF3F3EE
:103398000133C3F30B0351E004234FE07B689B68C0
:1033A800002B11D1FB68581E7B6859680B465B00DF
:1033B8000B44B0FBF3F30133C3F30B03002B0CBF37
:1033C80001230023DBB212E0FB68581E7B685968B2
:1033D8000B469B000B4499000B44B0FBF3F30133FD
:1033E800C3F30B03002B0CBF01230023DBB2002B1C
:1033F80001D0012322E07B689B68002B0ED1FB687B
:10340800581E7B6859680B465B000B44B0FBF3F30E
:103418000133C3F30B0343F400430FE0FB68581E6A
:103428007B6859680B469B000B4499000B44B0FB22
:10343800F3F30133C3F30B0343F44043796809689A
:103448001343CB617B681B681B6823F0C0017B6852
:10345800DA697B681B6A1A437B681B680A431A602F
:103468007B681B689B6823F4034323F0FF037A6897
:1034780011697A68D26811437A6812680B439360BD
:103488007B681B68DB6823F0FF017B685A697B68EF
:103498009B691A437B681B680A43DA607B681B6870
:1034A8001A687B681B6842F001021A607B68002278
:1034B8001A647B68202283F83D207B6800221A6307
:1034C8007B68002283F83E20002318461037BD464B
:1034D80080BD00BFA08601007F841E00FF083D005C
:1034E80083DE1B43D34D621080B586B000AF786091
:1034F8007B68002B01D1012367E27B681B6803F01E
:103508000103002B75D0884B9B6803F00C03042B38
:103518000CD0854B9B6803F00C03082B12D1824B0F
:103528005B6803F48003B3F5800F0BD17E4B1B68F7
:1035380003F40033002B5BD07B685B68002B57D10A
:10354800012342E27B685B68B3F5803F06D1764B86
:103558001B68754A43F4803313601DE07B685B6821
:10356800B3F5A02F0CD1704B1B686F4A43F480232E
:1035780013606D4B1B686C4A43F4803313600BE097
:10358800694B1B68684A23F480331360664B1B68D9
:10359800654A23F4802313607B685B68002B13D093
:1035A800FEF76EFD386108E0FEF76AFD02463B69EA
:1035B800D31A642B01D9032307E25B4B1B6803F47E
:1035C8000033002BF0D014E0FEF75AFD386108E014
:1035D800FEF756FD02463B69D31A642B01D9032333
:1035E800F3E1514B1B6803F40033002BF0D100E0EA
:1035F80000BF7B681B6803F00203002B63D04A4BB3
:103608009B6803F00C03002B0BD0474B9B6803F01F
:103618000C03082B1CD1444B5B6803F48003002B7C
:1036280016D1414B1B6803F00203002B05D07B68C1
:10363800DB68012B01D00123C7E13B4B1B6823F05A
:10364800F8027B681B69DB00374913430B603AE0DB
:103658007B68DB68002B20D0344B01221A60FEF710
:103668000FFD386108E0FEF70BFD02463B69D31AEF
:10367800022B01D90323A8E12B4B1B6803F002039B
:10368800002BF0D0284B1B6823F0F8027B681B69DD
:10369800DB00254913430B6015E0244B00221A6018
:1036A800FEF7EEFC386108E0FEF7EAFC02463B69EB
:1036B800D31A022B01D9032387E11B4B1B6803F0A4
:1036C8000203002BF0D17B681B6803F00803002B72
:1036D80036D07B685B69002B16D0154B01221A6027
:1036E800FEF7CEFC386108E0FEF7CAFC02463B69EB
:1036F800D31A022B01D9032367E10B4B5B6F03F04D
:103708000203002BF0D01BE0094B00221A60FEF7E1
:10371800B7FC38610EE0FEF7B3FC02463B69D31AEA
:10372800022B07D9032350E100380240000047422A
:10373800800E4742884B5B6F03F00203002BEAD1EF
:103748007B681B6803F00403002B00F097800023BC
:10375800FB75814B1B6C03F08053002B0FD10023AA
:10376800BB607D4B1B6C7C4A43F0805313647A4BDF
:103778001B6C03F08053BB60BB680123FB75774B60
:103788001B6803F48073002B18D1744B1B68734AB1
:1037980043F480731360FEF773FC386108E0FEF7AA
:1037A8006FFC02463B69D31A022B01D903230CE1B3
:1037B8006A4B1B6803F48073002BF0D07B689B680E
:1037C800012B06D1644B1B6F634A43F00103136757
:1037D8001CE07B689B68052B0CD15F4B1B6F5E4A16
:1037E80043F0040313675C4B1B6F5B4A43F0010310
:1037F80013670BE0584B1B6F574A23F001031367FD
:10380800554B1B6F544A23F0040313677B689B686E
:10381800002B15D0FEF734FC38610AE0FEF730FCC7
:1038280002463B69D31A41F28832934201D90323F5
:10383800CBE0494B1B6F03F00203002BEED014E0E2
:10384800FEF71EFC38610AE0FEF71AFC02463B69E7
:10385800D31A41F28832934201D90323B5E03E4B93
:103868001B6F03F00203002BEED1FB7D012B05D16A
:10387800394B1B6C384A23F0805313647B689B696F
:10388800002B00F0A180344B9B6803F00C03082B3D
:103898005CD07B689B69022B41D1314B00221A60B6
:1038A800FEF7EEFB386108E0FEF7EAFB02463B69EB
:1038B800D31A022B01D9032387E0274B1B6803F097
:1038C8000073002BF0D17B68DA697B681B6A1A43A6
:1038D8007B685B6A9B011A437B689B6A5B08013BB8
:1038E8001B041A437B68DB6A1B061B4913434B60A6
:1038F8001B4B01221A60FEF7C3FB386108E0FEF794
:10390800BFFB02463B69D31A022B01D903235CE0B3
:10391800114B1B6803F00073002BF0D054E0104BE0
:1039280000221A60FEF7ACFB386108E0FEF7A8FB3E
:1039380002463B69D31A022B01D9032345E0064B03
:103948001B6803F00073002BF0D13DE07B689B6996
:10395800012B07D1012338E00038024000700040F5
:10396800600047421B4B5B68FB607B689B69012BCF
:1039780028D0FB6803F480027B68DB699A4221D176
:10398800FB6803F03F027B681B6A9A421AD1FA6807
:1039980047F6C07313407A68526A9201934211D174
:1039A800FB6803F440327B689B6A5B08013B1B049D
:1039B8009A4207D1FB6803F070627B68DB6A1B06DA
:1039C8009A4201D0012300E0002318461837BD466B
:1039D80080BD00BF0038024080B584B000AF786079
:1039E80039607B68002B01D10123CCE0684B1B6850
:1039F80003F007033A689A420CD9654B3A68D2B289
:103A08001A70634B1B6803F007033A689A4201D0A7
:103A18000123B8E07B681B6803F00203002B20D069
:103A28007B681B6803F00403002B05D0594B9B6887
:103A3800584A43F4E05393607B681B6803F008031B
:103A4800002B05D0534B9B68524A43F46043936064
:103A5800504B9B6823F0F0027B689B684D491343E9
:103A68008B607B681B6803F00103002B44D07B68E4
:103A78005B68012B07D1474B1B6803F40033002B0D
:103A880019D101237FE07B685B68022B03D07B6838
:103A98005B68032B07D13F4B1B6803F00073002BB7
:103AA80009D101236FE03B4B1B6803F00203002B95
:103AB80001D1012367E0374B9B6823F003027B6841
:103AC8005B68344913438B60FEF7DAFAF8600AE062
:103AD800FEF7D6FA0246FB68D31A41F288329342BF
:103AE80001D903234FE02B4B9B6803F00C027B6842
:103AF8005B689B009A42EBD1254B1B6803F00703D8
:103B08003A689A420CD2224B3A68D2B21A70204BC9
:103B18001B6803F007033A689A4201D0012332E098
:103B28007B681B6803F00403002B08D0194B9B68C3
:103B380023F4E0527B68DB68164913438B607B688B
:103B48001B6803F00803002B09D0124B9B6823F471
:103B580060427B681B69DB000E4913438B6000F0F1
:103B680021F802460B4B9B681B0903F00F030A4917
:103B7800CB5C22FA03F3094A1360094B1B68184609
:103B8800FEF73AFA002318461037BD4680BD00BF3D
:103B9800003C024000380240EC9B0008080000206E
:103BA8000C0000202DE9B04F94B000AF00237B64D7
:103BB8000023FB6400233B640023BB64794B9B68B0
:103BC80003F00C03082B0DD0082B00F2E180002B2A
:103BD80002D0042B03D0DBE0734BBB64DBE0734BF8
:103BE800BB64D8E06F4B5B6803F03F037B646D4BAD
:103BF8005B6803F48003002B63D06A4B5B689B0906
:103C08000022BB63FA63BB6BC3F308033B63002367
:103C18007B63D7E90C4522462B464FF000004FF056
:103C28000001590141EAD261500102460B46214682
:103C3800511A3961294663EB01037B614FF0000299
:103C48004FF00003D7E904AB59468B01514643EACC
:103C5800916351468A015146B2EB0108594663EB1C
:103C680001094FF000024FF000034FEAC90343EA8D
:103C780058734FEAC80290469946234618EB030347
:103C8800BB602B4649EB0303FB604FF000024FF08B
:103C98000003D7E9024529464B02214643EAD1539E
:103CA80021464A02104619467B6C0022BB62FA6222
:103CB800D7E90A23FCF784FA02460B461346FB644D
:103CC80058E0384B5B689B09002218461146C0F340
:103CD80008033B6200237B62D7E9088942464B46CA
:103CE8004FF000004FF00001590141EAD261500144
:103CF80002460B464146B2EB010A494663EB010B0B
:103D08004FF000024FF000034FEA8B1343EA9A6327
:103D18004FEA8A12B2EB0A0463EB0B054FF000027C
:103D28004FF00003EB0043EA5473E20014461D46CB
:103D38004346E3183B604B4645EB03037B604FF07B
:103D480000024FF00003D7E9004529468B022146BF
:103D580043EA915321468A02104619467B6C002299
:103D6800BB61FA61D7E90623FCF72AFA02460B463B
:103D78001346FB640B4B5B681B0C03F00303013316
:103D88005B003B64FA6C3B6CB2FBF3F3BB6402E090
:103D9800054BBB6400BFBB6C18465037BD46BDE839
:103DA800B08F00BF003802400024F40000127A00EF
:103DB80080B400AF034B1B681846BD465DF8047B12
:103DC800704700BF0800002080B500AFFFF7F0FF84
:103DD8000246054B9B689B0A03F007030349CB5C2B
:103DE80022FA03F3184680BD00380240FC9B000805
:103DF80080B500AFFFF7DCFF0246054B9B685B0B05
:103E080003F007030349CB5C22FA03F3184680BD8D
:103E180000380240FC9B000880B582B000AF786093
:103E28007B68002B01D101237BE07B685B6A002B58
:103E380008D17B685B68B3F5827F09D07B68002274
:103E4800DA6105E07B6800221A617B6800225A610A
:103E58007B6800229A627B6893F85130DBB2002BB2
:103E680006D17B68002283F850207868FDF7E8FCCB
:103E78007B68022283F851207B681B681A687B687C
:103E88001B6822F040021A607B685B6803F4827248
:103E98007B689B6803F404431A437B68DB6803F47C
:103EA80000631A437B681B6903F002031A437B68AB
:103EB8005B6903F001031A437B689B6903F4007391
:103EC8001A437B68DB6903F038031A437B681B6A73
:103ED80003F0800342EA03017B689B6A03F4005203
:103EE8007B681B680A431A607B689B691B0C03F09C
:103EF80004017B685B6A03F010027B681B680A4355
:103F08005A607B681B68DA697B681B6822F4006268
:103F1800DA617B6800225A657B68012283F85120A8
:103F2800002318460837BD4680BD80B588B000AF6D
:103F3800F860B9603B601346FB800023FB77FB68A1
:103F480093F85030012B01D1022326E1FB680122AE
:103F580083F85020FEF794F8B861FB88FB82FB6871
:103F680093F85130DBB2012B02D00223FB770BE12F
:103F7800BB68002B02D0FB88002B02D10123FB7702
:103F880002E1FB68032283F85120FB6800225A658E
:103F9800FB68BA681A63FB68FA889A86FB68FA882D
:103FA800DA86FB6800229A63FB6800229A87FB681E
:103FB8000022DA87FB6800225A64FB6800221A6430
:103FC800FB689B68B3F5004F0FD1FB681B681A6844
:103FD800FB681B6822F040021A60FB681B681A68BD
:103FE800FB681B6842F480421A60FB681B681B6808
:103FF80003F04003402B07D0FB681B681A68FB6876
:104008001B6842F040021A60FB68DB68B3F5006F7A
:104018004BD1FB685B68002B02D0FB8A012B3ED199
:10402800FB681B6B1A88FB681B68DA60FB681B6BF4
:104038009A1CFB681A63FB68DB8E9BB2013B9AB241
:10404800FB68DA862BE0FB681B689B6803F00203B9
:10405800022B12D1FB681B6B1A88FB681B68DA609D
:10406800FB681B6B9A1CFB681A63FB68DB8E9BB2B0
:10407800013B9AB2FB68DA8611E0FEF701F80246C6
:10408800BB69D31A3A689A4203D83B68B3F1FF3F39
:1040980002D13B68002B02D10323FB7774E0FB6855
:1040A800DB8E9BB2002BCED14CE0FB685B68002B0B
:1040B80002D0FB8A012B40D1FB681A6BFB681B6896
:1040C8000C3312781A70FB681B6B5A1CFB681A6356
:1040D800FB68DB8E9BB2013B9AB2FB68DA862CE068
:1040E800FB681B689B6803F00203022B13D1FB6873
:1040F8001A6BFB681B680C3312781A70FB681B6B11
:104108005A1CFB681A63FB68DB8E9BB2013B9AB2B0
:10411800FB68DA8611E0FDF7B3FF0246BB69D31AE4
:104128003A689A4203D83B68B3F1FF3F02D13B6833
:10413800002B02D10323FB7726E0FB68DB8E9BB2C2
:10414800002BCDD1BA693968F86800F0CBFB03467B
:10415800002B02D0FB6820225A65FB689B68002B65
:104168000AD100233B61FB681B68DB683B61FB6885
:104178001B689B683B613B69FB685B6D002B02D049
:104188000123FB7700E000BFFB68012283F8512080
:10419800FB68002283F85020FB7F18462037BD4675
:1041A80080BD80B588B002AFF860B9603B60134647
:1041B800FB800023FB75FB685B68B3F5827F12D137
:1041C800FB689B68002B0ED1FB68042283F8512002
:1041D800FA883B6800931346BA68B968F86800F033
:1041E800F1F80346EAE0FB6893F85030012B01D15F
:1041F8000223E3E0FB68012283F85020FDF740FF2B
:104208003861FB6893F85130DBB2012B02D00223EE
:10421800FB75CAE0BB68002B02D0FB88002B02D1DB
:104228000123FB75C1E0FB68042283F85120FB6879
:1042380000225A65FB68BA689A63FB68FA889A870D
:10424800FB68FA88DA87FB6800221A63FB68002299
:104258009A86FB680022DA86FB6800221A64FB68EB
:1042680000225A64FB689B68B3F5004F0FD1FB68C6
:104278001B681A68FB681B6822F040021A60FB681A
:104288001B681A68FB681B6822F480421A60FB6886
:104298001B681B6803F04003402B07D0FB681B68B2
:1042A8001A68FB681B6842F040021A60FB68DB680A
:1042B800002B62D12EE0FB681B689B6803F00103AA
:1042C800012B15D1FB681B6803F10C02FB689B6B83
:1042D8001278D2B21A70FB689B6B5A1CFB689A63FF
:1042E800FB68DB8F9BB2013B9AB2FB68DA8711E06F
:1042F800FDF7C6FE02463B69D31A3A689A4203D8CC
:104308003B68B3F1FF3F02D13B68002B02D1032386
:10431800FB754AE0FB68DB8F9BB2002BCBD131E009
:10432800FB681B689B6803F00103012B13D1FB6832
:104338001B68DA68FB689B6B92B21A80FB689B6B00
:104348009A1CFB689A63FB68DB8F9BB2013B9AB2AD
:10435800FB68DA8711E0FDF793FE02463B69D31A42
:104368003A689A4203D83B68B3F1FF3F02D13B68F1
:10437800002B02D10323FB7517E0FB68DB8F9BB290
:10438800002BCDD13A693968F86800F045FA034640
:10439800002B02D0FB6820225A65FB685B6D002B5E
:1043A80002D00123FB7500E000BFFB68012283F8FF
:1043B8005120FB68002283F85020FB7D18461837EF
:1043C800BD4680BD80B58CB000AFF860B9607A603A
:1043D8007B800123FB62002387F82B30FB6893F86E
:1043E8005030012B01D102238AE1FB68012283F8B6
:1043F8005020FDF745FE7862FB6893F8513087F846
:104408002330FB685B68FB617B887B8397F82330EC
:10441800012B0FD0FB69B3F5827F07D1FB689B683E
:10442800002B03D197F82330042B03D0022387F8FD
:104438002B305BE1BB68002B05D07B68002B02D0DA
:104448007B88002B03D1012387F82B304EE1FB68D2
:1044580093F85130DBB2042B03D0FB68052283F8B4
:104468005120FB6800225A65FB687A689A63FB68EA
:104478007A88DA87FB687A889A87FB68BA681A6349
:10448800FB687A88DA86FB687A889A86FB68002255
:104498001A64FB6800225A64FB681B681B6803F0F7
:1044A8004003402B07D0FB681B681A68FB681B6831
:1044B80042F040021A60FB68DB68B3F5006F78D100
:1044C800FB685B68002B02D07B8B012B66D1FB68F5
:1044D8001B6B1A88FB681B68DA60FB681B6B9A1CED
:1044E800FB681A63FB68DB8E9BB2013B9AB2FB68E0
:1044F800DA8653E0FB681B689B6803F00203022B13
:104508001BD1FB68DB8E9BB2002B16D0FB6A012BFC
:1045180013D1FB681B6B1A88FB681B68DA60FB68A1
:104528001B6B9A1CFB681A63FB68DB8E9BB2013B12
:104538009AB2FB68DA860023FB62FB681B689B68FB
:1045480003F00103012B19D1FB68DB8F9BB2002B11
:1045580014D0FB681B68DA68FB689B6B92B21A8000
:10456800FB689B6B9A1CFB689A63FB68DB8F9BB2AA
:10457800013B9AB2FB68DA870123FB62FDF780FDF5
:1045880002467B6AD31ABA6B9A4207D8BB6BB3F15F
:10459800FF3F03D0032387F82B30A7E0FB68DB8EAF
:1045A8009BB2002BA6D1FB68DB8F9BB2002BA1D15D
:1045B8007CE0FB685B68002B02D07B8B012B6BD106
:1045C800FB681A6BFB681B680C3312781A70FB685F
:1045D8001B6B5A1CFB681A63FB68DB8E9BB2013BA2
:1045E8009AB2FB68DA8657E0FB681B689B6803F0A1
:1045F8000203022B1CD1FB68DB8E9BB2002B17D069
:10460800FB6A012B14D1FB681A6BFB681B680C331F
:1046180012781A70FB681B6B5A1CFB681A63FB68DC
:10462800DB8E9BB2013B9AB2FB68DA860023FB6201
:10463800FB681B689B6803F00103012B19D1FB6819
:10464800DB8F9BB2002B14D0FB681B68DA68FB6811
:104658009B6BD2B21A70FB689B6B5A1CFB689A63FF
:10466800FB68DB8F9BB2013B9AB2FB68DA870123B8
:10467800FB62FDF705FD02467B6AD31ABA6B9A42C4
:1046880003D8BB6BB3F1FF3F02D1BB6B002B03D147
:10469800032387F82B3029E0FB68DB8E9BB2002BC5
:1046A800A2D1FB68DB8F9BB2002B9DD17A6AB96BD4
:1046B800F86800F017F90346002B06D0012387F8A5
:1046C8002B30FB6820225A6510E0FB689B68002BA2
:1046D8000BD100237B61FB681B68DB687B61FB688F
:1046E8001B689B687B617B6900E000BFFB68012257
:1046F80083F85120FB68002283F8502097F82B306C
:1047080018463037BD4680BD80B588B000AFF86028
:10471800B9603B601346FB71FDF7B2FC0246BB6A09
:104728009B1A3A681344FB61FDF7AAFCB861394B40
:104738001B685B011B0DFA6902FB03F37B6154E004
:104748003B68B3F1FF3F50D0FDF79AFC0246BB69C6
:10475800D31AFA699A4202D9FB69002B3DD1FB684A
:104768001B685A68FB681B6822F0E0025A60FB6805
:104778005B68B3F5827F11D1FB689B68B3F5004F86
:1047880004D0FB689B68B3F5806F07D1FB681B6892
:104798001A68FB681B6822F040021A60FB689B6A73
:1047A800B3F5005F0FD1FB681B681A68FB681B68CC
:1047B80022F400521A60FB681B681A68FB681B68C1
:1047C80042F400521A60FB68012283F85120FB680A
:1047D800002283F85020032317E07B69002B01D1C6
:1047E8000023FB617B69013B7B61FB681B689A685E
:1047F800BB681340BA689A420CBF01230023DBB29E
:104808001A46FB799A429BD1002318462037BD46A9
:1048180080BD00BF0800002080B586B002AFF860F8
:10482800B9607A60FB685B68B3F5827F11D1FB6879
:104838009B68B3F5004F04D0FB689B68B3F5806FA5
:1048480007D1FB681B681A68FB681B6822F04002E6
:104858001A60FB685B68B3F5827F2AD1FB689B68A6
:10486800B3F5806F12D07B680093BB68002280216B
:10487800F868FFF749FF0346002B2DD0FB685B6DF6
:1048880043F02002FB685A65032326E07B68009307
:10489800BB6800220121F868FFF736FF0346002BAA
:1048A8001AD0FB685B6D43F02002FB685A6503234E
:1048B80013E07B680093BB6800220121F868FFF7CA
:1048C80023FF0346002B07D0FB685B6D43F02002F3
:1048D800FB685A65032300E0002318461037BD46DD
:1048E80080BD000080B588B002AFF860B9607A601A
:1048F8001B4B1B681B4AA2FB03235B0D4FF47A7208
:1049080002FB03F37B61FB685B68B3F5827F12D11E
:104918007B680093BB6800228021F868FFF7F4FEEB
:104928000346002B16D0FB685B6D43F02002FB6842
:104938005A6503230FE07B69002B0AD07B69013B92
:104948007B61FB681B689B6803F08003802BF2D0B7
:1049580000E000BF002318461837BD4680BD00BFE1
:1049680008000020819F5E1680B584B000AFF86013
:10497800B9607A60FB68002B01D1012334E0FB6841
:1049880093F84930DBB2002B06D1FB68002283F88C
:104998004820F868FCF708F8FB681A68FB680833D1
:1049A8001946104602F04EF8FB681868FB689B68C9
:1049B8001A46B96802F098F8FB685868FB689A6864
:1049C800FB681B6B796802F0CDF8FB681B68FA6816
:1049D800926853F82210FB681B68FA68926841F0E5
:1049E800010143F82210002318461037BD4680BD48
:1049F80080B582B000AF78607B68002B01D10123BD
:104A080041E07B6893F83D30DBB2002B06D17B6830
:104A1800002283F83C207868FDF7D6F87B680222EC
:104A280083F83D207B681A687B6804331946104672
:104A380000F01AFC7B68012283F846207B6801227B
:104A480083F83E207B68012283F83F207B6801229F
:104A580083F840207B68012283F841207B6801228B
:104A680083F842207B68012283F843207B68012277
:104A780083F844207B68012283F845207B68012263
:104A880083F83D20002318460837BD4680BD000046
:104A980080B485B000AF78607B6893F83D30DBB2B6
:104AA800012B01D0012346E07B68022283F83D20D8
:104AB8007B681B68234A934222D07B681B68B3F14A
:104AC800804F1DD07B681B681F4A934218D07B68B3
:104AD8001B681E4A934213D07B681B681C4A93428A
:104AE8000ED07B681B681B4A934209D07B681B6801
:104AF800194A934204D07B681B68184A934211D123
:104B08007B681B689B6803F00703FB60FB68062B48
:104B180010D07B681B681A687B681B6842F001022A
:104B28001A6007E07B681B681A687B681B6842F09C
:104B380001021A60002318461437BD465DF8047B4D
:104B4800704700BF0000014000040040000800401A
:104B5800000C0040000401400040014000180040E3
:104B680080B485B000AF78607B6893F83D30DBB2E5
:104B7800012B01D001234EE07B68022283F83D20FF
:104B88007B681B68DA687B681B6842F00102DA60A0
:104B98007B681B68234A934222D07B681B68B3F169
:104BA800804F1DD07B681B681F4A934218D07B68D2
:104BB8001B681E4A934213D07B681B681C4A9342A9
:104BC8000ED07B681B681B4A934209D07B681B6820
:104BD800194A934204D07B681B68184A934211D142
:104BE8007B681B689B6803F00703FB60FB68062B68
:104BF80010D07B681B681A687B681B6842F001024A
:104C08001A6007E07B681B681A687B681B6842F0BB
:104C180001021A60002318461437BD465DF8047B6C
:104C2800704700BF00000140000400400008004039
:104C3800000C004000040140004001400018004002
:104C480080B582B000AF78607B68002B01D101236A
:104C580041E07B6893F83D30DBB2002B06D17B68DE
:104C6800002283F83C20786800F039F87B6802223B
:104C780083F83D207B681A687B6804331946104620
:104C880000F0F2FA7B68012283F846207B68012253
:104C980083F83E207B68012283F83F207B6801224D
:104CA80083F840207B68012283F841207B68012239
:104CB80083F842207B68012283F843207B68012225
:104CC80083F844207B68012283F845207B68012211
:104CD80083F83D20002318460837BD4680BD80B4C0
:104CE80083B000AF786000BF0C37BD465DF8047B29
:104CF800704780B582B000AF78607B681B681B691D
:104D080003F00203022B22D17B681B68DB6803F0E7
:104D18000203022B1BD17B681B686FF002021A6129
:104D28007B6801221A777B681B689B6903F0030381
:104D3800002B03D0786800F078FA05E0786800F076
:104D48006AFA786800F07BFA7B6800221A777B6839
:104D58001B681B6903F00403042B22D17B681B68C2
:104D6800DB6803F00403042B1BD17B681B686FF01E
:104D780004021A617B6802221A777B681B689B69A8
:104D880003F44073002B03D0786800F04EFA05E076
:104D9800786800F040FA786800F051FA7B680022E1
:104DA8001A777B681B681B6903F00803082B22D15C
:104DB8007B681B68DB6803F00803082B1BD17B6842
:104DC8001B686FF008021A617B6804221A777B68F7
:104DD8001B68DB6903F00303002B03D0786800F03D
:104DE80024FA05E0786800F016FA786800F027FAE7
:104DF8007B6800221A777B681B681B6903F0100325
:104E0800102B22D17B681B68DB6803F01003102B82
:104E18001BD17B681B686FF010021A617B6808223F
:104E28001A777B681B68DB6903F44073002B03D097
:104E3800786800F0FAF905E0786800F0ECF978682D
:104E480000F0FDF97B6800221A777B681B681B69F4
:104E580003F00103012B0ED17B681B68DB6803F0AC
:104E68000103012B07D17B681B686FF001021A61EF
:104E78007868FCF785FC7B681B681B6903F0800376
:104E8800802B0ED17B681B68DB6803F08003802BC6
:104E980007D17B681B686FF080021A61786800F0A0
:104EA80053FD7B681B681B6903F04003402B0ED140
:104EB8007B681B68DB6803F04003402B07D17B68E5
:104EC8001B686FF040021A61786800F0C2F97B68CD
:104ED8001B681B6903F02003202B0ED17B681B681D
:104EE800DB6803F02003202B07D17B681B686FF079
:104EF80020021A61786800F01DFD00BF0837BD4622
:104F080080BD000080B586B000AFF860B9607A60F7
:104F18000023FB75FB6893F83C30012B01D1022379
:104F2800AEE0FB68012283F83C207B680C2B00F282
:104F38009F8001A252F823F0754F000879500008AD
:104F48007950000879500008B54F000879500008DA
:104F58007950000879500008F74F00087950000888
:104F6800795000087950000837500008FB681B6822
:104F7800B968184600F018FAFB681B689A69FB685C
:104F88001B6842F008029A61FB681B689A69FB6813
:104F98001B6822F004029A61FB681B689969BB6868
:104FA8001A69FB681B680A439A6164E0FB681B681E
:104FB800B968184600F068FAFB681B689A69FB68CC
:104FC8001B6842F400629A61FB681B689A69FB6877
:104FD8001B6822F480629A61FB681B689969BB6848
:104FE8001B691A02FB681B680A439A6143E0FB6865
:104FF8001B68B968184600F0BDFAFB681B68DA69D7
:10500800FB681B6842F00802DA61FB681B68DA6912
:10501800FB681B6822F00402DA61FB681B68D96927
:10502800BB681A69FB681B680A43DA6123E0FB68FE
:105038001B68B968184600F011FBFB681B68DA6941
:10504800FB681B6842F40062DA61FB681B68DA6976
:10505800FB681B6822F48062DA61FB681B68D96907
:10506800BB681B691A02FB681B680A43DA6102E025
:105078000123FB7500BFFB68002283F83C20FB7D01
:1050880018461837BD4680BD80B584B000AF78603B
:1050980039600023FB737B6893F83C30012B01D106
:1050A8000223B4E07B68012283F83C207B6802225B
:1050B80083F83D207B681B689B68BB60BB6823F056
:1050C8007703BB60BB6823F47F43BB607B681B68C6
:1050D800BA689A603B681B68B3F5005F3ED0B3F5C9
:1050E800005F00F28780B3F5805F00F08680B3F53B
:1050F800805F7FD8702B1AD0702B7BD8602B50D054
:10510800602B77D8502B3CD0502B73D8402B58D0DD
:10511800402B6FD8302B64D0302B6BD8202B60D02D
:10512800202B67D8002B5CD0102B5AD062E07B680C
:1051380018683B6899683B685A683B68DB6800F008
:105148005DFB7B681B689B68BB60BB6843F07703AB
:10515800BB607B681B68BA689A604FE07B68186818
:105168003B6899683B685A683B68DB6800F046FB17
:105178007B681B689A687B681B6842F480429A6067
:105188003CE07B6818683B6859683B68DB681A46EE
:1051980000F0BAFA7B681B685021184600F013FB30
:1051A8002CE07B6818683B6859683B68DB681A46DE
:1051B80000F0D9FA7B681B686021184600F003FBF1
:1051C8001CE07B6818683B6859683B68DB681A46CE
:1051D80000F09AFA7B681B684021184600F0F3FA41
:1051E8000CE07B681A683B681B681946104600F09B
:1051F800EAFA03E00123FB7300E000BF7B680122A9
:1052080083F83D207B68002283F83C20FB7B18460E
:105218001037BD4680BD80B483B000AF786000BF52
:105228000C37BD465DF8047B704780B483B000AF8F
:10523800786000BF0C37BD465DF8047B704780B4CA
:1052480083B000AF786000BF0C37BD465DF8047BC3
:10525800704780B483B000AF786000BF0C37BD469C
:105268005DF8047B7047000080B485B000AF7860BB
:1052780039607B681B68FB607B68404A934213D0A7
:105288007B68B3F1804F0FD07B683D4A93420BD0C7
:105298007B683C4A934207D07B683B4A934203D0E1
:1052A8007B683A4A934208D1FB6823F07003FB609D
:1052B8003B685B68FA681343FB607B682F4A93423C
:1052C8002BD07B68B3F1804F27D07B682C4A934260
:1052D80023D07B682B4A93421FD07B682A4A93428B
:1052E8001BD07B68294A934217D07B68284A93428F
:1052F80013D07B68274A93420FD07B68264A934293
:105308000BD07B68254A934207D07B68244A934296
:1053180003D07B68234A934208D1FB6823F4407387
:10532800FB603B68DB68FA681343FB60FB6823F0AB
:1053380080023B685B691343FB607B68FA681A600C
:105348003B689A687B68DA623B681A687B689A628D
:105358007B680A4A934203D07B680C4A934203D184
:105368003B681A697B681A637B6801225A6100BF2F
:105378001437BD465DF8047B704700BF000001404C
:105388000004004000080040000C004000040140F8
:10539800004001400044014000480140001800401E
:1053A800001C00400020004080B487B000AF786047
:1053B80039607B681B6A23F001027B681A627B688C
:1053C8001B6A7B617B685B683B617B689B69FB60F0
:1053D800FB6823F07003FB60FB6823F00303FB60AA
:1053E8003B681B68FA681343FB607B6923F0020380
:1053F8007B613B689B687A6913437B617B68204AC1
:10540800934203D07B681F4A93420CD17B6923F0F7
:1054180008037B613B68DB687A6913437B617B69BE
:1054280023F004037B617B68154A934203D07B68B1
:10543800144A934211D13B6923F480733B613B6961
:1054480023F400733B613B685B693A6913433B6132
:105458003B689B693A6913433B617B683A695A60C8
:105468007B68FA689A613B685A687B685A637B680C
:105478007A691A6200BF1C37BD465DF8047B704725
:10548800000001400004014080B487B000AF78609C
:1054980039607B681B6A23F010027B681A627B689C
:1054A8001B6A7B617B685B683B617B689B69FB600F
:1054B800FB6823F4E043FB60FB6823F44073FB6064
:1054C8003B681B681B02FA681343FB607B6923F087
:1054D80020037B613B689B681B017A6913437B61EE
:1054E8007B68224A934203D07B68214A93420DD1BC
:1054F8007B6923F080037B613B68DB681B017A6969
:1055080013437B617B6923F040037B617B68174A07
:10551800934203D07B68164A934213D13B6923F424
:1055280080633B613B6923F400633B613B685B69D3
:105538009B003A6913433B613B689B699B003A694E
:1055480013433B617B683A695A607B68FA689A61E1
:105558003B685A687B689A637B687A691A6200BFFD
:105568001C37BD465DF8047B704700BF0000014052
:105578000004014080B487B000AF786039607B6870
:105588001B6A23F480727B681A627B681B6A7B61E2
:105598007B685B683B617B68DB69FB60FB6823F0C9
:1055A8007003FB60FB6823F00303FB603B681B6828
:1055B800FA681343FB607B6923F400737B613B68E3
:1055C8009B681B027A6913437B617B68214A93427B
:1055D80003D07B68204A93420DD17B6923F4006392
:1055E8007B613B68DB681B027A6913437B617B69DB
:1055F80023F480637B617B68164A934203D07B68FF
:10560800154A934213D13B6923F480533B613B69AC
:1056180023F400533B613B685B691B013A69134300
:105628003B613B689B691B013A6913433B617B689B
:105638003A695A607B68FA68DA613B685A687B683D
:10564800DA637B687A691A6200BF1C37BD465DF869
:10565800047B7047000001400004014080B487B01B
:1056680000AF786039607B681B6A23F480527B68DE
:105678001A627B681B6A3B617B685B687B617B683D
:10568800DB69FB60FB6823F4E043FB60FB6823F401
:105698004073FB603B681B681B02FA681343FB609E
:1056A8003B6923F400533B613B689B681B033A69E1
:1056B80013433B617B68124A934203D07B68114ACB
:1056C800934209D17B6923F480437B613B685B6922
:1056D8009B017A6913437B617B687A695A607B68AE
:1056E800FA68DA613B685A687B681A647B683A69C9
:1056F8001A6200BF1C37BD465DF8047B704700BFC7
:10570800000001400004014080B487B000AFF86099
:10571800B9607A60FB681B6A7B61FB681B6A23F0CF
:105728000102FB681A62FB689B693B613B6923F0D5
:10573800F0033B617B681B013A6913433B617B695A
:1057480023F00A037B617A69BB6813437B61FB68BA
:105758003A699A61FB687A691A6200BF1C37BD46CC
:105768005DF8047B704780B487B000AFF860B9601B
:105778007A60FB681B6A23F01002FB681A62FB68F8
:105788009B697B61FB681B6A3B617B6923F47043FF
:105798007B617B681B037A6913437B613B6923F058
:1057A800A0033B61BB681B013A6913433B61FB687B
:1057B8007A699A61FB683A691A6200BF1C37BD466C
:1057C8005DF8047B704780B485B000AF78603960BD
:1057D8007B689B68FB60FB6823F07003FB603A689A
:1057E800FB68134343F00703FB607B68FA689A6021
:1057F80000BF1437BD465DF8047B704780B487B09E
:1058080000AFF860B9607A603B60FB689B687B61B9
:105818007B6923F47F437B613B681A027B681A43E8
:10582800BB6813437A6913437B61FB687A699A60A2
:1058380000BF1C37BD465DF8047B704780B485B057
:1058480000AF786039607B6893F83C30012B01D158
:1058580002235AE07B68012283F83C207B680222FD
:1058680083F83D207B681B685B68FB607B681B686E
:105878009B68BB60FB6823F07003FB603B681B6898
:10588800FA681343FB607B681B68FA685A607B6898
:105898001B68214A934222D07B681B68B3F1804F72
:1058A8001DD07B681B681D4A934218D07B681B6813
:1058B8001B4A934213D07B681B681A4A93420ED046
:1058C8007B681B68184A934209D07B681B68174A93
:1058D800934204D07B681B68154A93420CD1BB687D
:1058E80023F08003BB603B685B68BA681343BB6006
:1058F8007B681B68BA689A607B68012283F83D2040
:105908007B68002283F83C20002318461437BD46E4
:105918005DF8047B704700BF0000014000040040B0
:1059280000080040000C0040000401400040014015
:105938000018004080B483B000AF786000BF0C3717
:10594800BD465DF8047B704780B483B000AF7860D3
:1059580000BF0C37BD465DF8047B704780B582B048
:1059680000AF78607B68002B01D101233FE07B68A2
:1059780093F83D30DBB2002B06D17B68002283F818
:105988003C207868FCF760FA7B68242283F83D2085
:105998007B681B68DA687B681B6822F40052DA604F
:1059A800786800F0DBFD7B681B681A697B681B68F8
:1059B80022F490421A617B681B685A697B681B68ED
:1059C80022F02A025A617B681B68DA687B681B68C8
:1059D80042F40052DA607B6800221A647B68202255
:1059E80083F83D207B68202283F83E200023184658
:1059F8000837BD4680BD80B58AB002AFF860B9608F
:105A08003B601346FB8000237B61FB6893F83D30C5
:105A1800DBB2202B7CD1BB68002B02D0FB88002B8B
:105A280001D1012375E0FB6893F83C30012B01D1CB
:105A380002236EE0FB68012283F83C20FB68002209
:105A48001A64FB68212283F83D20FCF719FB786172
:105A5800FB68FA889A84FB68FA88DA84FB689B6892
:105A6800B3F5805F08D1FB681B69002B04D10023C4
:105A7800FB61BB68BB6103E0BB68FB610023BB61E2
:105A8800FB68002283F83C202AE03B6800937B698E
:105A980000228021F86800F01FFB0346002B01D08C
:105AA800032336E0FB69002B0BD1BB691B881A4620
:105AB800FB681B68C2F308025A60BB690233BB610A
:105AC80007E0FB691A78FB681B685A60FB690133B9
